{
  "contractName": "challenge2",
  "abi": [
    {
      "inputs": [],
      "name": "Nplayers",
      "outputs": [
        {
          "internalType": "uint256",
          "name": "",
          "type": "uint256"
        }
      ],
      "stateMutability": "view",
      "type": "function"
    },
    {
      "inputs": [
        {
          "internalType": "uint256",
          "name": "",
          "type": "uint256"
        }
      ],
      "name": "higherStake",
      "outputs": [
        {
          "internalType": "uint256",
          "name": "",
          "type": "uint256"
        }
      ],
      "stateMutability": "view",
      "type": "function"
    },
    {
      "inputs": [
        {
          "internalType": "address",
          "name": "",
          "type": "address"
        }
      ],
      "name": "stakePool",
      "outputs": [
        {
          "internalType": "uint256",
          "name": "",
          "type": "uint256"
        }
      ],
      "stateMutability": "view",
      "type": "function"
    },
    {
      "inputs": [],
      "name": "stakeVault",
      "outputs": [
        {
          "internalType": "uint256",
          "name": "",
          "type": "uint256"
        }
      ],
      "stateMutability": "view",
      "type": "function"
    },
    {
      "inputs": [],
      "name": "stakingAmount",
      "outputs": [
        {
          "internalType": "uint256",
          "name": "",
          "type": "uint256"
        }
      ],
      "stateMutability": "view",
      "type": "function"
    },
    {
      "inputs": [
        {
          "internalType": "uint256",
          "name": "_Nplayers",
          "type": "uint256"
        },
        {
          "internalType": "uint256",
          "name": "_amt",
          "type": "uint256"
        }
      ],
      "name": "setGmaeInfo",
      "outputs": [],
      "stateMutability": "nonpayable",
      "type": "function"
    },
    {
      "inputs": [
        {
          "internalType": "uint256",
          "name": "stakeFee",
          "type": "uint256"
        },
        {
          "internalType": "address",
          "name": "staker",
          "type": "address"
        }
      ],
      "name": "stake",
      "outputs": [],
      "stateMutability": "nonpayable",
      "type": "function"
    },
    {
      "inputs": [
        {
          "internalType": "address",
          "name": "_faintedOne",
          "type": "address"
        },
        {
          "internalType": "uint256",
          "name": "stakeFee",
          "type": "uint256"
        }
      ],
      "name": "refund",
      "outputs": [],
      "stateMutability": "nonpayable",
      "type": "function"
    },
    {
      "inputs": [],
      "name": "selectWinner",
      "outputs": [
        {
          "internalType": "address",
          "name": "",
          "type": "address"
        }
      ],
      "stateMutability": "view",
      "type": "function"
    },
    {
      "inputs": [
        {
          "internalType": "address",
          "name": "champ",
          "type": "address"
        }
      ],
      "name": "withdraw",
      "outputs": [],
      "stateMutability": "nonpayable",
      "type": "function"
    }
  ],
  "bytecode": "0x608060405234801561001057600080fd5b5061096b806100206000396000f3fe608060405234801561001057600080fd5b506004361061009e5760003560e01c8063410085df11610066578063410085df1461014957806351cff8d914610165578063739a3e02146101815780637acb77571461019f578063e083b8ab146101bb5761009e565b806305795a11146100a3578063101d4705146100c15780632d788333146100f157806333198ecd1461010f57806333a99e041461012b575b600080fd5b6100ab6101eb565b6040516100b89190610616565b60405180910390f35b6100db60048036038101906100d69190610694565b6101f1565b6040516100e89190610616565b60405180910390f35b6100f9610209565b6040516101069190610616565b60405180910390f35b610129600480360381019061012491906106ed565b61020f565b005b610133610262565b604051610140919061073c565b60405180910390f35b610163600480360381019061015e9190610757565b6102d1565b005b61017f600480360381019061017a9190610694565b61033d565b005b61018961043c565b6040516101969190610616565b60405180910390f35b6101b960048036038101906101b49190610797565b610442565b005b6101d560048036038101906101d091906107d7565b6105d9565b6040516101e29190610616565b60405180910390f35b60005481565b60046020528060005260406000206000915090505481565b60065481565b816000819055508060018190555033600260006101000a81548173ffffffffffffffffffffffffffffffffffffffff021916908373ffffffffffffffffffffffffffffffffffffffff1602179055505050565b600080600090506007805490508110156102cc576002811415610284576102cc565b600760028154811061029957610298610804565b5b9060005260206000200160009054906101000a900473ffffffffffffffffffffffffffffffffffffffff169150506102ce565b505b90565b60005460055414156102e257600080fd5b806006546102f091906108ab565b600681905550600460008373ffffffffffffffffffffffffffffffffffffffff1673ffffffffffffffffffffffffffffffffffffffff168152602001908152602001600020600090555050565b600760028154811061035257610351610804565b5b9060005260206000200160009054906101000a900473ffffffffffffffffffffffffffffffffffffffff1673ffffffffffffffffffffffffffffffffffffffff168173ffffffffffffffffffffffffffffffffffffffff16146103b457600080fd5b6006546004600060076002815481106103d0576103cf610804565b5b9060005260206000200160009054906101000a900473ffffffffffffffffffffffffffffffffffffffff1673ffffffffffffffffffffffffffffffffffffffff1673ffffffffffffffffffffffffffffffffffffffff1681526020019081526020016000208190555050565b60015481565b6001548210158015610458575060005460055414155b80156104b257503373ffffffffffffffffffffffffffffffffffffffff16600260009054906101000a900473ffffffffffffffffffffffffffffffffffffffff1673ffffffffffffffffffffffffffffffffffffffff1614155b6104bb57600080fd5b600154821115610502576000600154836104d591906108ab565b90506003819080600181540180825580915050600190039060005260206000200160009091909190915055505b81600460008373ffffffffffffffffffffffffffffffffffffffff1673ffffffffffffffffffffffffffffffffffffffff168152602001908152602001600020819055506005600081548092919061055990610862565b91905055508160065461056c91906108df565b6006819055506007819080600181540180825580915050600190039060005260206000200160009091909190916101000a81548173ffffffffffffffffffffffffffffffffffffffff021916908373ffffffffffffffffffffffffffffffffffffffff1602179055505050565b600381815481106105e957600080fd5b906000526020600020016000915090505481565b6000819050919050565b610610816105fd565b82525050565b600060208201905061062b6000830184610607565b92915050565b600080fd5b600073ffffffffffffffffffffffffffffffffffffffff82169050919050565b600061066182610636565b9050919050565b61067181610656565b811461067c57600080fd5b50565b60008135905061068e81610668565b92915050565b6000602082840312156106aa576106a9610631565b5b60006106b88482850161067f565b91505092915050565b6106ca816105fd565b81146106d557600080fd5b50565b6000813590506106e7816106c1565b92915050565b6000806040838503121561070457610703610631565b5b6000610712858286016106d8565b9250506020610723858286016106d8565b9150509250929050565b61073681610656565b82525050565b6000602082019050610751600083018461072d565b92915050565b6000806040838503121561076e5761076d610631565b5b600061077c8582860161067f565b925050602061078d858286016106d8565b9150509250929050565b600080604083850312156107ae576107ad610631565b5b60006107bc858286016106d8565b92505060206107cd8582860161067f565b9150509250929050565b6000602082840312156107ed576107ec610631565b5b60006107fb848285016106d8565b91505092915050565b7f4e487b7100000000000000000000000000000000000000000000000000000000600052603260045260246000fd5b7f4e487b7100000000000000000000000000000000000000000000000000000000600052601160045260246000fd5b600061086d826105fd565b91507fffffffffffffffffffffffffffffffffffffffffffffffffffffffffffffffff8214156108a05761089f610833565b5b600182019050919050565b60006108b6826105fd565b91506108c1836105fd565b9250828210156108d4576108d3610833565b5b828203905092915050565b60006108ea826105fd565b91506108f5836105fd565b9250827fffffffffffffffffffffffffffffffffffffffffffffffffffffffffffffffff0382111561092a57610929610833565b5b82820190509291505056fea2646970667358221220f6229abcec8cc1a7400d376082e25a9dbb67eeb1a6d257470bba87acd4a477a564736f6c634300080b0033",
  "immutableReferences": {},
  "source": "// SPDX-License-Identifier: MIT\r\npragma solidity > 0.4.0 <= 0.9.0;\r\n\r\n\r\ncontract challenge2 {\r\n    uint public  Nplayers;\r\n    uint public stakingAmount;\r\n    address owner;\r\n\r\n    function setGmaeInfo(uint _Nplayers, uint _amt) external {\r\n        Nplayers = _Nplayers;\r\n        stakingAmount = _amt;\r\n        owner = msg.sender;\r\n    }\r\n\r\n    uint[] public higherStake;\r\n    mapping(address => uint) public stakePool;\r\n    uint count;\r\n    uint public stakeVault;\r\n    address[] stakers;\r\n\r\n    function stake(uint stakeFee, address staker) external {\r\n        require(stakeFee >= stakingAmount && count != Nplayers && owner != msg.sender);\r\n        if(stakeFee > stakingAmount) {\r\n            uint aval = stakeFee - stakingAmount;\r\n            higherStake.push(aval);\r\n        }\r\n        stakePool[staker] = stakeFee;\r\n        count++;\r\n        stakeVault = stakeVault + stakeFee;\r\n        stakers.push(staker);\r\n    }\r\n\r\n    function refund(address _faintedOne, uint stakeFee) external {\r\n        require(count != Nplayers);\r\n        stakeVault = stakeVault - stakeFee;\r\n        delete stakePool[_faintedOne];\r\n    }\r\n\r\n    function selectWinner() external view returns(address) {\r\n        for(uint i = 0; i < stakers.length; i++) {\r\n            if(i == 2) {\r\n                break;\r\n            }\r\n            return stakers[2];\r\n        }\r\n        \r\n    }\r\n\r\n    function withdraw(address champ) external {\r\n        require(champ == stakers[2]);\r\n        stakePool[stakers[2]] = stakeVault;\r\n    }\r\n}\r\n",
  "sourcePath": "C:\\Users\\lateefat .D. Ibrahim\\Desktop\\Blank\\SmartContractProject\\stakingGame\\contracts\\staking.sol",
  "compiler": {
    "name": "solc",
    "version": "0.8.11+commit.d7f03943.Emscripten.clang"
  },
  "schemaVersion": "3.4.4",
  "updatedAt": "2022-08-03T13:21:29.551Z",
  "devdoc": {
    "kind": "dev",
    "methods": {},
    "version": 1
  },
  "userdoc": {
    "kind": "user",
    "methods": {},
    "version": 1
  }
}